{
  "contractName": "TransactionFactroy",
  "abi": [
    {
      "anonymous": false,
      "inputs": [
        {
          "indexed": false,
          "internalType": "string",
          "name": "name",
          "type": "string"
        },
        {
          "indexed": false,
          "internalType": "string",
          "name": "transactionType",
          "type": "string"
        },
        {
          "indexed": false,
          "internalType": "uint256",
          "name": "amount",
          "type": "uint256"
        }
      ],
      "name": "TransactionCreated",
      "type": "event"
    },
    {
      "constant": true,
      "inputs": [],
      "name": "add",
      "outputs": [
        {
          "internalType": "address",
          "name": "",
          "type": "address"
        }
      ],
      "payable": false,
      "stateMutability": "view",
      "type": "function"
    },
    {
      "constant": true,
      "inputs": [],
      "name": "income",
      "outputs": [
        {
          "internalType": "uint256",
          "name": "",
          "type": "uint256"
        }
      ],
      "payable": false,
      "stateMutability": "view",
      "type": "function"
    },
    {
      "constant": true,
      "inputs": [],
      "name": "name",
      "outputs": [
        {
          "internalType": "string",
          "name": "",
          "type": "string"
        }
      ],
      "payable": false,
      "stateMutability": "view",
      "type": "function"
    },
    {
      "constant": true,
      "inputs": [
        {
          "internalType": "address",
          "name": "",
          "type": "address"
        }
      ],
      "name": "ownerTransactionCount",
      "outputs": [
        {
          "internalType": "uint256",
          "name": "",
          "type": "uint256"
        }
      ],
      "payable": false,
      "stateMutability": "view",
      "type": "function"
    },
    {
      "constant": true,
      "inputs": [
        {
          "internalType": "uint256",
          "name": "",
          "type": "uint256"
        }
      ],
      "name": "transactionToOwner",
      "outputs": [
        {
          "internalType": "address",
          "name": "",
          "type": "address"
        }
      ],
      "payable": false,
      "stateMutability": "view",
      "type": "function"
    },
    {
      "constant": true,
      "inputs": [
        {
          "internalType": "uint256",
          "name": "",
          "type": "uint256"
        }
      ],
      "name": "transactions",
      "outputs": [
        {
          "internalType": "string",
          "name": "name",
          "type": "string"
        },
        {
          "internalType": "string",
          "name": "transactionType",
          "type": "string"
        },
        {
          "internalType": "uint256",
          "name": "amount",
          "type": "uint256"
        }
      ],
      "payable": false,
      "stateMutability": "view",
      "type": "function"
    },
    {
      "constant": false,
      "inputs": [
        {
          "internalType": "address",
          "name": "_owner",
          "type": "address"
        },
        {
          "internalType": "string",
          "name": "_name",
          "type": "string"
        },
        {
          "internalType": "string",
          "name": "_type",
          "type": "string"
        },
        {
          "internalType": "uint256",
          "name": "_amount",
          "type": "uint256"
        }
      ],
      "name": "createTransaction",
      "outputs": [],
      "payable": false,
      "stateMutability": "nonpayable",
      "type": "function"
    },
    {
      "constant": true,
      "inputs": [],
      "name": "getTransactionsByOwner",
      "outputs": [
        {
          "internalType": "uint256[]",
          "name": "",
          "type": "uint256[]"
        }
      ],
      "payable": false,
      "stateMutability": "view",
      "type": "function"
    }
  ],
  "bytecode": "0x60806040526040518060400160405280600f81526020017f457870656e736520547261636b657200000000000000000000000000000000008152506000908051906020019061004f9291906100a9565b5033600360006101000a81548173ffffffffffffffffffffffffffffffffffffffff021916908373ffffffffffffffffffffffffffffffffffffffff1602179055506127106005553480156100a357600080fd5b5061014e565b828054600181600116156101000203166002900490600052602060002090601f016020900481019282601f106100ea57805160ff1916838001178555610118565b82800160010185558215610118579182015b828111156101175782518255916020019190600101906100fc565b5b5090506101259190610129565b5090565b61014b91905b8082111561014757600081600090555060010161012f565b5090565b90565b610c0a8061015d6000396000f3fe608060405234801561001057600080fd5b50600436106100885760003560e01c806388b450461161005b57806388b45046146103355780639ace38c214610353578063a5adff241461046d578063ea892451146104db57610088565b80630386f0d71461008d57806306fdde03146102095780634f2be91f1461028c5780636c914af2146102d6575b600080fd5b610207600480360360808110156100a357600080fd5b81019080803573ffffffffffffffffffffffffffffffffffffffff169060200190929190803590602001906401000000008111156100e057600080fd5b8201836020820111156100f257600080fd5b8035906020019184600183028401116401000000008311171561011457600080fd5b91908080601f016020809104026020016040519081016040528093929190818152602001838380828437600081840152601f19601f8201169050808301925050505050505091929192908035906020019064010000000081111561017757600080fd5b82018360208201111561018957600080fd5b803590602001918460018302840111640100000000831117156101ab57600080fd5b91908080601f016020809104026020016040519081016040528093929190818152602001838380828437600081840152601f19601f82011690508083019250505050505050919291929080359060200190929190505050610533565b005b610211610788565b6040518080602001828103825283818151815260200191508051906020019080838360005b83811015610251578082015181840152602081019050610236565b50505050905090810190601f16801561027e5780820380516001836020036101000a031916815260200191505b509250505060405180910390f35b610294610826565b604051808273ffffffffffffffffffffffffffffffffffffffff1673ffffffffffffffffffffffffffffffffffffffff16815260200191505060405180910390f35b6102de61084c565b6040518080602001828103825283818151815260200191508051906020019060200280838360005b83811015610321578082015181840152602081019050610306565b505050509050019250505060405180910390f35b61033d610978565b6040518082815260200191505060405180910390f35b61037f6004803603602081101561036957600080fd5b810190808035906020019092919050505061097e565b604051808060200180602001848152602001838103835286818151815260200191508051906020019080838360005b838110156103c95780820151818401526020810190506103ae565b50505050905090810190601f1680156103f65780820380516001836020036101000a031916815260200191505b50838103825285818151815260200191508051906020019080838360005b8381101561042f578082015181840152602081019050610414565b50505050905090810190601f16801561045c5780820380516001836020036101000a031916815260200191505b509550505050505060405180910390f35b6104996004803603602081101561048357600080fd5b8101908080359060200190929190505050610ae5565b604051808273ffffffffffffffffffffffffffffffffffffffff1673ffffffffffffffffffffffffffffffffffffffff16815260200191505060405180910390f35b61051d600480360360208110156104f157600080fd5b81019080803573ffffffffffffffffffffffffffffffffffffffff169060200190929190505050610b18565b6040518082815260200191505060405180910390f35b6004604051806060016040528085815260200184815260200183815250908060018154018082558091505090600182039060005260206000209060030201600090919290919091506000820151816000019080519060200190610597929190610b30565b5060208201518160010190805190602001906105b4929190610b30565b506040820151816002015550505060006001600480549050039050336001600083815260200190815260200160002060006101000a81548173ffffffffffffffffffffffffffffffffffffffff021916908373ffffffffffffffffffffffffffffffffffffffff160217905550600260003373ffffffffffffffffffffffffffffffffffffffff1673ffffffffffffffffffffffffffffffffffffffff168152602001908152602001600020600081548092919060010191905055507f72fef583f955efc4ded46bda9ee563c8b8030eaa366e8ccb1f1cb50e967cd4cc848484604051808060200180602001848152602001838103835286818151815260200191508051906020019080838360005b838110156106de5780820151818401526020810190506106c3565b50505050905090810190601f16801561070b5780820380516001836020036101000a031916815260200191505b50838103825285818151815260200191508051906020019080838360005b83811015610744578082015181840152602081019050610729565b50505050905090810190601f1680156107715780820380516001836020036101000a031916815260200191505b509550505050505060405180910390a15050505050565b60008054600181600116156101000203166002900480601f01602080910402602001604051908101604052809291908181526020018280546001816001161561010002031660029004801561081e5780601f106107f35761010080835404028352916020019161081e565b820191906000526020600020905b81548152906001019060200180831161080157829003601f168201915b505050505081565b600360009054906101000a900473ffffffffffffffffffffffffffffffffffffffff1681565b606080600260003373ffffffffffffffffffffffffffffffffffffffff1673ffffffffffffffffffffffffffffffffffffffff168152602001908152602001600020546040519080825280602002602001820160405280156108bd5781602001602082028038833980820191505090505b50905060008090506000600190505b60048054905081101561096f573373ffffffffffffffffffffffffffffffffffffffff166001600083815260200190815260200160002060009054906101000a900473ffffffffffffffffffffffffffffffffffffffff1673ffffffffffffffffffffffffffffffffffffffff161415610962578083838151811061094d57fe5b60200260200101818152505081806001019250505b80806001019150506108cc565b50819250505090565b60055481565b6004818154811061098b57fe5b9060005260206000209060030201600091509050806000018054600181600116156101000203166002900480601f016020809104026020016040519081016040528092919081815260200182805460018160011615610100020316600290048015610a375780601f10610a0c57610100808354040283529160200191610a37565b820191906000526020600020905b815481529060010190602001808311610a1a57829003601f168201915b505050505090806001018054600181600116156101000203166002900480601f016020809104026020016040519081016040528092919081815260200182805460018160011615610100020316600290048015610ad55780601f10610aaa57610100808354040283529160200191610ad5565b820191906000526020600020905b815481529060010190602001808311610ab857829003601f168201915b5050505050908060020154905083565b60016020528060005260406000206000915054906101000a900473ffffffffffffffffffffffffffffffffffffffff1681565b60026020528060005260406000206000915090505481565b828054600181600116156101000203166002900490600052602060002090601f016020900481019282601f10610b7157805160ff1916838001178555610b9f565b82800160010185558215610b9f579182015b82811115610b9e578251825591602001919060010190610b83565b5b509050610bac9190610bb0565b5090565b610bd291905b80821115610bce576000816000905550600101610bb6565b5090565b9056fea265627a7a723158207706548824cd0797aeaf4ec963b18f21bb5248c2704177a391a303987a14368264736f6c63430005100032",
  "source": "// SPDX-License-Identifier: MIT\r\npragma solidity >=0.4.22 <0.9.0;\r\n\r\ncontract TransactionFactroy {\r\n\r\n  string public name = \"Expense Tracker\";\r\n  mapping (uint => address) public transactionToOwner;\r\n  mapping (address => uint) public ownerTransactionCount;\r\n  address public add = msg.sender;\r\n\r\n  struct Transaction {\r\n    string name;\r\n    string transactionType;\r\n    uint amount;\r\n  }\r\n\r\n  event TransactionCreated(\r\n      string name,\r\n      string transactionType,\r\n      uint amount\r\n  );\r\n\r\n  Transaction[] public transactions;\r\n  uint public income = 10000;\r\n\r\n  function createTransaction(address _owner, string memory _name, string memory _type, uint _amount) public {\r\n    transactions.push(Transaction(_name, _type, _amount));\r\n    uint id = transactions.length - 1;\r\n    transactionToOwner[id] = msg.sender;\r\n    ownerTransactionCount[msg.sender]++;\r\n    emit TransactionCreated(_name, _type, _amount);\r\n  }\r\n\r\n  function getTransactionsByOwner() public view returns(uint[] memory) {\r\n    uint[] memory result = new uint[](ownerTransactionCount[msg.sender]);\r\n    uint counter = 0;\r\n    for (uint i = 1; i < transactions.length; i++) {\r\n      if (transactionToOwner[i] == msg.sender) {\r\n        result[counter] = i;\r\n        counter++;\r\n      }\r\n    }\r\n    return result;\r\n  }\r\n}\r\n",
  "sourcePath": "D:/Blockchain/Assignment/box/contracts/TransactionFactroy.sol",
  "compiler": {
    "name": "solc",
    "version": "0.5.16+commit.9c3226ce.Emscripten.clang"
  },
  "schemaVersion": "3.4.1",
  "updatedAt": "2021-06-27T11:08:59.208Z",
  "networkType": "ethereum",
  "devdoc": {
    "methods": {}
  },
  "userdoc": {
    "methods": {}
  }
}